{
  "contractName": "TaskForce",
  "abi": [
    {
      "constant": true,
      "inputs": [],
      "name": "receiverAddress",
      "outputs": [
        {
          "name": "",
          "type": "address"
        }
      ],
      "payable": false,
      "stateMutability": "view",
      "type": "function"
    },
    {
      "constant": true,
      "inputs": [],
      "name": "cancelTaskCounts",
      "outputs": [
        {
          "name": "",
          "type": "uint128"
        }
      ],
      "payable": false,
      "stateMutability": "view",
      "type": "function"
    },
    {
      "constant": true,
      "inputs": [],
      "name": "manager",
      "outputs": [
        {
          "name": "",
          "type": "address"
        }
      ],
      "payable": false,
      "stateMutability": "view",
      "type": "function"
    },
    {
      "constant": true,
      "inputs": [],
      "name": "completeTaskCounts",
      "outputs": [
        {
          "name": "",
          "type": "uint128"
        }
      ],
      "payable": false,
      "stateMutability": "view",
      "type": "function"
    },
    {
      "constant": true,
      "inputs": [],
      "name": "failTaskCounts",
      "outputs": [
        {
          "name": "",
          "type": "uint128"
        }
      ],
      "payable": false,
      "stateMutability": "view",
      "type": "function"
    },
    {
      "constant": true,
      "inputs": [
        {
          "name": "",
          "type": "address"
        },
        {
          "name": "",
          "type": "uint256"
        }
      ],
      "name": "addresstotasks",
      "outputs": [
        {
          "name": "exist",
          "type": "bool"
        },
        {
          "name": "complete",
          "type": "bool"
        },
        {
          "name": "desctiption",
          "type": "string"
        },
        {
          "name": "deadline",
          "type": "uint64"
        },
        {
          "name": "value",
          "type": "uint128"
        }
      ],
      "payable": false,
      "stateMutability": "view",
      "type": "function"
    },
    {
      "constant": true,
      "inputs": [],
      "name": "taskCounts",
      "outputs": [
        {
          "name": "",
          "type": "uint128"
        }
      ],
      "payable": false,
      "stateMutability": "view",
      "type": "function"
    },
    {
      "inputs": [
        {
          "name": "creater",
          "type": "address"
        }
      ],
      "payable": false,
      "stateMutability": "nonpayable",
      "type": "constructor"
    },
    {
      "constant": true,
      "inputs": [],
      "name": "getInfo",
      "outputs": [
        {
          "name": "timestampNow",
          "type": "uint64"
        },
        {
          "name": "taskcounts",
          "type": "uint256"
        },
        {
          "name": "completeTask",
          "type": "uint128"
        },
        {
          "name": "cancelTask",
          "type": "uint128"
        },
        {
          "name": "failTask",
          "type": "uint128"
        }
      ],
      "payable": false,
      "stateMutability": "view",
      "type": "function"
    },
    {
      "constant": false,
      "inputs": [
        {
          "name": "_receiverAddress",
          "type": "address"
        }
      ],
      "name": "setReceiverAddress",
      "outputs": [],
      "payable": false,
      "stateMutability": "nonpayable",
      "type": "function"
    },
    {
      "constant": false,
      "inputs": [
        {
          "name": "_desctiption",
          "type": "string"
        },
        {
          "name": "_deadline",
          "type": "uint64"
        }
      ],
      "name": "createTask",
      "outputs": [],
      "payable": true,
      "stateMutability": "payable",
      "type": "function"
    },
    {
      "constant": false,
      "inputs": [
        {
          "name": "index",
          "type": "uint256"
        }
      ],
      "name": "completeTask",
      "outputs": [],
      "payable": false,
      "stateMutability": "nonpayable",
      "type": "function"
    },
    {
      "constant": false,
      "inputs": [
        {
          "name": "index",
          "type": "uint64"
        }
      ],
      "name": "cancelTask",
      "outputs": [],
      "payable": false,
      "stateMutability": "nonpayable",
      "type": "function"
    },
    {
      "constant": false,
      "inputs": [
        {
          "name": "index",
          "type": "uint64"
        }
      ],
      "name": "getReward",
      "outputs": [],
      "payable": false,
      "stateMutability": "nonpayable",
      "type": "function"
    }
  ],
  "bytecode": "0x608060405234801561001057600080fd5b50604051602080610bc4833981016040525160048054600160a060020a031916600160a060020a03909216919091179055610b74806100506000396000f3006080604052600436106100c45763ffffffff7c010000000000000000000000000000000000000000000000000000000060003504166316fed3e281146100c957806323652390146100fa5780634327815914610154578063481c6a75146101855780635a9b0b891461019a5780635b31035d146101f15780635f344ac0146102135780636190aab8146102285780638279c7db1461024a578063c80a8e561461026b578063e1e2955814610280578063ef83406b14610298578063ff05387d1461036b575b600080fd5b3480156100d557600080fd5b506100de610380565b60408051600160a060020a039092168252519081900360200190f35b6040805160206004803580820135601f81018490048402850184019095528484526101529436949293602493928401919081908401838280828437509497505050923567ffffffffffffffff16935061038f92505050565b005b34801561016057600080fd5b50610169610511565b604080516001608060020a039092168252519081900360200190f35b34801561019157600080fd5b506100de610534565b3480156101a657600080fd5b506101af610543565b6040805167ffffffffffffffff909616865260208601949094526001608060020a03928316858501529082166060850152166080830152519081900360a00190f35b3480156101fd57600080fd5b5061015267ffffffffffffffff6004351661057b565b34801561021f57600080fd5b506101696106a8565b34801561023457600080fd5b5061015267ffffffffffffffff600435166106b7565b34801561025657600080fd5b50610152600160a060020a03600435166107dc565b34801561027757600080fd5b50610169610838565b34801561028c57600080fd5b50610152600435610847565b3480156102a457600080fd5b506102bc600160a060020a036004351660243561095f565b60408051861515815285151560208083019190915267ffffffffffffffff851660608301526001608060020a038416608083015260a0928201838152865193830193909352855191929160c084019187019080838360005b8381101561032c578181015183820152602001610314565b50505050905090810190601f1680156103595780820380516001836020036101000a031916815260200191505b50965050505050505060405180910390f35b34801561037757600080fd5b50610169610a5b565b600354600160a060020a031681565b610397610a7e565b600454600160a060020a031633146103ae57600080fd5b60013410156103bc57600080fd5b8167ffffffffffffffff164260640167ffffffffffffffff161015156103e157600080fd5b506040805160a08101825260018082526000602080840182815284860188815267ffffffffffffffff881660608701526001608060020a033416608087015233845283835295832080548086018083559185529383902086516003909502018054925115156101000261ff001995151560ff19909416939093179490941691909117835594518051949594869461047d93908501920190610aad565b5060608201516002918201805460809094015167ffffffffffffffff1990941667ffffffffffffffff9092169190911777ffffffffffffffffffffffffffffffff00000000000000001916680100000000000000006001608060020a039485160217905580548083167001000000000000000000000000000000009182900484166001019093160291909117905550505050565b60015470010000000000000000000000000000000090046001608060020a031681565b600454600160a060020a031681565b60025460015442926001608060020a037001000000000000000000000000000000008085048216948285169491909104821692911690565b600354600090600160a060020a0316331461059557600080fd5b600454600160a060020a03166000908152602081905260409020805467ffffffffffffffff84169081106105c557fe5b60009182526020909120600390910201805490915060ff1615156105e857600080fd5b8054610100900460ff16156105fc57600080fd5b600281015467ffffffffffffffff16421161061657600080fd5b6003546002820154604051600160a060020a03909216916001608060020a03680100000000000000009092049190911680156108fc02916000818181858888f1935050505015801561066c573d6000803e3d6000fd5b50805461ff00191661010017905550600280546001608060020a03808216600101166fffffffffffffffffffffffffffffffff19909116179055565b6001546001608060020a031681565b600454600090600160a060020a031633146106d157600080fd5b336000908152602081905260409020805467ffffffffffffffff84169081106106f657fe5b60009182526020909120600390910201805490915060ff16151561071957600080fd5b8054610100900460ff161561072d57600080fd5b600281015467ffffffffffffffff1642111561074857600080fd5b6004546002820154604051600160a060020a03909216916001608060020a03680100000000000000009092049190911680156108fc02916000818181858888f1935050505015801561079e573d6000803e3d6000fd5b50805461ff00191661010017905550600180546001608060020a03700100000000000000000000000000000000808304821684018216029116179055565b600454600160a060020a031633146107f357600080fd5b600160a060020a03811633141561080957600080fd5b6003805473ffffffffffffffffffffffffffffffffffffffff1916600160a060020a0392909216919091179055565b6002546001608060020a031681565b600454600090600160a060020a0316331461086157600080fd5b33600090815260208190526040902080548390811061087c57fe5b60009182526020909120600390910201805490915060ff16151561089f57600080fd5b8054610100900460ff16156108b357600080fd5b600281015467ffffffffffffffff164211156108ce57600080fd5b6004546002820154604051600160a060020a03909216916001608060020a03680100000000000000009092049190911680156108fc02916000818181858888f19350505050158015610924573d6000803e3d6000fd5b50805461ff00191661010017905550600180546001608060020a038082168301166fffffffffffffffffffffffffffffffff19909116179055565b60006020528160005260406000208181548110151561097a57fe5b6000918252602091829020600391909102018054600180830180546040805160026101009584161586026000190190931692909204601f810188900488028301880190915280825260ff8086169950939094049092169550929390929190830182828015610a295780601f106109fe57610100808354040283529160200191610a29565b820191906000526020600020905b815481529060010190602001808311610a0c57829003601f168201915b5050506002909301549192505067ffffffffffffffff8116906001608060020a03680100000000000000009091041685565b60025470010000000000000000000000000000000090046001608060020a031681565b6040805160a0810182526000808252602082018190526060928201839052918101829052608081019190915290565b828054600181600116156101000203166002900490600052602060002090601f016020900481019282601f10610aee57805160ff1916838001178555610b1b565b82800160010185558215610b1b579182015b82811115610b1b578251825591602001919060010190610b00565b50610b27929150610b2b565b5090565b610b4591905b80821115610b275760008155600101610b31565b905600a165627a7a723058208fcd1be57acd679e46fbce29e93ab6da81a6c609faaa63a800f3f4c035ee7ad80029",
  "source": "pragma solidity ^ 0.4.17;\n\ncontract Facory{\n    address[] deployedTaskForces;\n\n    function createTaskForce() public {\n        address newTaskForce = new TaskForce(msg.sender);\n        deployedTaskForces.push(newTaskForce);\n    }\n\n    function getDeployedTaskForces() public view returns(address[]) {\n        return deployedTaskForces;\n    }\n }\n\ncontract TaskForce{\n    struct task {\n        bool exist;\n        bool complete;\n        string desctiption;\n        uint64 deadline;\n        uint128 value;\n    }\n\n    mapping(address => task[]) public addresstotasks;\n    uint128 public completeTaskCounts;\n    uint128 public cancelTaskCounts;\n    uint128 public failTaskCounts;\n    uint128 public taskCounts;\n\n    address public receiverAddress;\n    address public manager;\n\n    modifier onlysenderAddress() {\n        require(msg.sender == manager);\n        _;\n    }\n\n    modifier onlyreceiverAddress() {\n        require(msg.sender == receiverAddress);\n        _;\n    }\n\n    constructor(address creater) public {\n        manager = creater;\n    }\n\n    function getInfo() public view returns (\n        uint64 timestampNow, uint256 taskcounts, uint128 completeTask, uint128 cancelTask, uint128 failTask\n        ) {\n        return (\n            uint64(block.timestamp),\n            taskCounts,\n            completeTaskCounts,\n            cancelTaskCounts,\n            failTaskCounts\n        );\n    }\n\n\n    function setReceiverAddress(address _receiverAddress) public onlysenderAddress(){\n        require(_receiverAddress != msg.sender);\n        receiverAddress = _receiverAddress;\n    }\n\n\n    function createTask(string _desctiption, uint64 _deadline) onlysenderAddress() payable{\n        require(msg.value >= 1);\n        require(uint64(block.timestamp) + 100 < _deadline);\n        task memory newtask = task({\n            exist: true,\n            complete: false,\n            desctiption: _desctiption,\n            deadline: _deadline,\n            value: uint128(msg.value)\n        });\n        addresstotasks[msg.sender].push(newtask);\n        taskCounts++;\n    }\n\n\n    function completeTask(uint256 index) onlysenderAddress() {\n        task storage tasks = addresstotasks[msg.sender][index];\n        require(tasks.exist);\n        require(!tasks.complete);\n        require(block.timestamp <= tasks.deadline);\n\n        manager.transfer(tasks.value);\n        tasks.complete = true;\n        completeTaskCounts++;\n    }\n\n\n    function cancelTask(uint64 index) onlysenderAddress public{\n        task storage tasks = addresstotasks[msg.sender][index];\n        require(tasks.exist);\n        require(!tasks.complete);\n        require(block.timestamp <= tasks.deadline);\n\n        manager.transfer(tasks.value);\n\n        tasks.complete = true;\n        cancelTaskCounts++;\n    }\n\n\n    function getReward(uint64 index) onlyreceiverAddress {\n        task storage tasks = addresstotasks[manager][index];\n        require(tasks.exist);\n        require(!tasks.complete);\n        require(block.timestamp > tasks.deadline);\n\n        receiverAddress.transfer(tasks.value);\n        tasks.complete = true;\n        failTaskCounts++;\n    }\n\n}\n",
  "sourcePath": "/Users/shun/Dev/work_force/contracts/TaskForce.sol",
  "compiler": {
    "name": "solc",
    "version": "0.4.24+commit.e67f0147.Emscripten.clang"
  },
  "schemaVersion": "2.0.1",
  "updatedAt": "2018-08-18T14:54:15.975Z"
}